000                                                                      0402191704NOT500402001                                                                                                                                                                                                                                 
500NOTAS500402001                                                                                                                                                                                                                                                                                                               
501ROZAC COMERCIO IMPORTACAO E EXPORTACAO DE PROD.TEX05629653000310255613997                                    RUA LUIZ LOPES GONZAGA, 1685                      SAO VICENTE                        ITAJAI                             88309421 4208203  SC       04022019                                                     
503BORRACHARIA DOS MOTORISTAS EIRELI                 00726428000116253466229                     RODOVIA BR 153, SN                                RURAL                              CONCORDIA                          89715899 4204301  SC       34425045                           1058    1                                
5053  00018511501022019INDUSTRIALIZACAVOLUMES               1 2C04022019           1 5102SC 0042830700                      00000001                                                                        305022019111000000000000000361335 42190205629653000310550030001851151003613359                I                     
5060000040000000000000000000000000000000000000000S 000000000000000000000000174186000000000000000000000000000000000000000000000000000000002917000000000000000000000000000000000000000000000000000000000000000000000000000000000000000000000000000000000000000000000000000000000000000000000000000000000000000000000000000000     
50700000400000000000000000000000000000000000000000029170000000000024870000000000000000000000000000000000000000000000000000000000000000000000000000000000000002000000000000000000000000000002300000000000029170000000000000000000020000000000000000000000000000000000000000000000000000000000000000000000000000000000000IC0ICM1SC 
508                                                                                                                                                                                                                                                                                                                             
51100000000VOLUMES        11084000001301      VELUDO NATURALE KAKI                              5102                    00000000                                                                                                                                                                                                
51100000000VOLUMES        11084000007701      VELUDO NATURALE RATO                              5102                    00000000                                                                                                                                                                                                
513BORRACHARIA DOS MOTORISTAS EIRELI                 00726428000116253466229      RODOVIA BR 153, SN                                RURAL                              CONCORDIA                          89715899 4204301  SC       34425045                                                                                   
515ROZAC COMERCIO IMPORTACAO E EXPORTACAO DE PROD.TEX05629653000310255613997      RUA LUIZ LOPES GONZAGA, 1685                      SAO VICENTE                        ITAJAI                             88309421 4208203  SC       33465001                                                                                   
503BORRACHARIA DOS MOTORISTAS EIRELI                 00726428000116253466229                     RODOVIA BR 153, SN                                RURAL                              CONCORDIA                          89715899 4204301  SC       34425045                           1058    1                                
5053  00018511501022019INDUSTRIALIZACAVOLUMES               1 2C04022019           1 5102SC 0042830700                      00000001                                                                        305022019111000000000000000361335 42190205629653000310550030001851151003613359                I                     
5060000040000000000000000000000000000000000000000S 000000000000000000000000174186000000000000000000000000000000000000000000000000000000002917000000000000000000000000000000000000000000000000000000000000000000000000000000000000000000000000000000000000000000000000000000000000000000000000000000000000000000000000000000     
50700000400000000000000000000000000000000000000000029170000000000024870000000000000000000000000000000000000000000000000000000000000000000000000000000000000002000000000000000000000000000002300000000000029170000000000000000000020000000000000000000000000000000000000000000000000000000000000000000000000000000000000IC0ICM1SC 
508                                                                                                                                                                                                                                                                                                                             
51100000000VOLUMES        11084000001301      VELUDO NATURALE KAKI                              5102                    00000000                                                                                                                                                                                                
51100000000VOLUMES        11084000007701      VELUDO NATURALE RATO                              5102                    00000000                                                                                                                                                                                                
513BORRACHARIA DOS MOTORISTAS EIRELI                 00726428000116253466229      RODOVIA BR 153, SN                                RURAL                              CONCORDIA                          89715899 4204301  SC       34425045                                                                                   
515ROZAC COMERCIO IMPORTACAO E EXPORTACAO DE PROD.TEX05629653000310255613997      RUA LUIZ LOPES GONZAGA, 1685                      SAO VICENTE                        ITAJAI                             88309421 4208203  SC       33465001                                                                                   
503BOGRANTEX INDUSTRIA DO VESTUARIO LTDA             03457085000120253974119                     RUA HANNOVER, 195                                 BARRA DO RIO CERRO                 JARAGUA DO SUL                     89260656 4208906  SC       32758600                           1058    1                                
5053  00018515004022019INDUSTRIALIZACAVOLUMES               1 2C04022019           1 5924SC 0042830700                      00000001                                                                        305022019111000000000000000912132 42190205629653000310550030001851501009121325                I                     
5060000100000000000000000000000000000000000000000N 000000000000000000000000505294000000000000000000000000000000000000000000000000000000002656000000000000000000000000000000000000000000000000000000000000000000000000000000000000000000000000000000000000000000000000000000000000000000000000000000000000000000000000000000     
50700001000000000000000000000000000000000000000000026560000000000018500000000000000000000000000000000000000000000000000000000000000000000000000000000000000002000000000000000000000000000006060000000000026560000000000000000000020000000000000000000000000000000000000000000000000000000000000000000000000000000000000IC0ICM1SC 
508                                                                                                                                                                                                                                                                                                                             
51100000000VOLUMES        04021000023701      BENGALINE BLUE JEANS                              5924                    00000000                                                                                                                                                                                                
513BOGRANTEX INDUSTRIA DO VESTUARIO LTDA             03457085000120253974119      RUA HANNOVER, 195                                 BARRA DO RIO CERRO                 JARAGUA DO SUL                     89260656 4208906  SC       32758600                                                                                   
515ROZAC COMERCIO IMPORTACAO E EXPORTACAO DE PROD.TEX05629653000310255613997      RUA LUIZ LOPES GONZAGA, 1685                      SAO VICENTE                        ITAJAI                             88309421 4208203  SC       33465001                                                                                   
503BOGRANTEX INDUSTRIA DO VESTUARIO LTDA             03457085000120253974119                     RUA HANNOVER, 195                                 BARRA DO RIO CERRO                 JARAGUA DO SUL                     89260656 4208906  SC       32758600                           1058    1                                
5053  00018515004022019INDUSTRIALIZACAVOLUMES               1 2C04022019           1 5924SC 0042830700                      00000001                                                                        305022019111000000000000000912132 42190205629653000310550030001851501009121325                I                     
5060000100000000000000000000000000000000000000000N 000000000000000000000000505294000000000000000000000000000000000000000000000000000000002656000000000000000000000000000000000000000000000000000000000000000000000000000000000000000000000000000000000000000000000000000000000000000000000000000000000000000000000000000000     
50700001000000000000000000000000000000000000000000026560000000000018500000000000000000000000000000000000000000000000000000000000000000000000000000000000000002000000000000000000000000000006060000000000026560000000000000000000020000000000000000000000000000000000000000000000000000000000000000000000000000000000000IC0ICM1SC 
508                                                                                                                                                                                                                                                                                                                             
51100000000VOLUMES        04021000023701      BENGALINE BLUE JEANS                              5924                    00000000                                                                                                                                                                                                
513BOGRANTEX INDUSTRIA DO VESTUARIO LTDA             03457085000120253974119      RUA HANNOVER, 195                                 BARRA DO RIO CERRO                 JARAGUA DO SUL                     89260656 4208906  SC       32758600                                                                                   
515ROZAC COMERCIO IMPORTACAO E EXPORTACAO DE PROD.TEX05629653000310255613997      RUA LUIZ LOPES GONZAGA, 1685                      SAO VICENTE                        ITAJAI                             88309421 4208203  SC       33465001                                                                                   
503CRISTIAN DA SILVA                                 036826440001039025272576                    RUA OSWALDO CRUZ, 1359                            VILA PORTES                        FOZ DO IGUACU                      85865155 4108304  PR       35763512                           1058    1                                
5053  00018509901022019INDUSTRIALIZACAVOLUMES               1 2C04022019           1 6102SC 0042830700                      00000001                                                                        305022019111000000000000000419621 42190205629653000310550030001850991004196217                I                     
5060000090000000000000000000000000000000000000000S 000000000000000000000000380328000000000000000000000000000000000000000000000000000000003922000000000000275000000000000000000000000000000000000000000000000000000000000000000000000000000000000000000000000000000000000000000000000000000000000000000000000000000000000000     
50700000900000000000000000000000000000000000000000039220000000000032660000000000000000000000000000000000000000000000000000000000000000000000000000000000000002000000000000000000000000000004560000000000039220070000000000000027520000000000000000000000000000000000000000000000000000000000000000000000000000000000000IC0ICM1SC 
508                                                                                                                                                                                                                                                                                                                             
51100000000VOLUMES        11070000007701      VELVETEEN RATO                                    6102                    00000000                                                                                                                                                                                                
51100000000VOLUMES        11070000008001      VELVETEEN PRETO                                   6102                    00000000                                                                                                                                                                                                
51100000000VOLUMES        11070000023901      VELVETEEN SUPER BROWN                             6102                    00000000                                                                                                                                                                                                
51100000000VOLUMES        11099000007101      LINEN CINZA                                       6102                    00000000                                                                                                                                                                                                
51100000000VOLUMES        11099000009001      LINEN LINHO                                       6102                    00000000                                                                                                                                                                                                
513CRISTIAN DA SILVA                                 036826440001039025272576     RUA OSWALDO CRUZ, 1359                            VILA PORTES                        FOZ DO IGUACU                      85865155 4108304  PR       35763512                                                                                   
515ROZAC COMERCIO IMPORTACAO E EXPORTACAO DE PROD.TEX05629653000310255613997      RUA LUIZ LOPES GONZAGA, 1685                      SAO VICENTE                        ITAJAI                             88309421 4208203  SC       33465001                                                                                   
503CRISTIAN DA SILVA                                 036826440001039025272576                    RUA OSWALDO CRUZ, 1359                            VILA PORTES                        FOZ DO IGUACU                      85865155 4108304  PR       35763512                           1058    1                                
5053  00018509901022019INDUSTRIALIZACAVOLUMES               1 2C04022019           1 6102SC 0042830700                      00000001                                                                        305022019111000000000000000419621 42190205629653000310550030001850991004196217                I                     
5060000090000000000000000000000000000000000000000S 000000000000000000000000380328000000000000000000000000000000000000000000000000000000003922000000000000275000000000000000000000000000000000000000000000000000000000000000000000000000000000000000000000000000000000000000000000000000000000000000000000000000000000000000     
50700000900000000000000000000000000000000000000000039220000000000032660000000000000000000000000000000000000000000000000000000000000000000000000000000000000002000000000000000000000000000004560000000000039220070000000000000027520000000000000000000000000000000000000000000000000000000000000000000000000000000000000IC0ICM1SC 
508                                                                                                                                                                                                                                                                                                                             
51100000000VOLUMES        11070000007701      VELVETEEN RATO                                    6102                    00000000                                                                                                                                                                                                
51100000000VOLUMES        11070000008001      VELVETEEN PRETO                                   6102                    00000000                                                                                                                                                                                                
51100000000VOLUMES        11070000023901      VELVETEEN SUPER BROWN                             6102                    00000000                                                                                                                                                                                                
51100000000VOLUMES        11099000007101      LINEN CINZA                                       6102                    00000000                                                                                                                                                                                                
51100000000VOLUMES        11099000009001      LINEN LINHO                                       6102                    00000000                                                                                                                                                                                                
513CRISTIAN DA SILVA                                 036826440001039025272576     RUA OSWALDO CRUZ, 1359                            VILA PORTES                        FOZ DO IGUACU                      85865155 4108304  PR       35763512                                                                                   
515ROZAC COMERCIO IMPORTACAO E EXPORTACAO DE PROD.TEX05629653000310255613997      RUA LUIZ LOPES GONZAGA, 1685                      SAO VICENTE                        ITAJAI                             88309421 4208203  SC       33465001                                                                                   
503COM DE PLAST FENIX LTDA                           042901650001049022808475                    RUA JOAO NEGRAO, 532                              CENTRO                             CURITIBA                           80010200 4106902  PR       30151512                           1058    1                                
5053  00018511801022019INDUSTRIALIZACAVOLUMES               1 2C04022019           1 6102SC 0042830700                      00000001                                                                        305022019111000000000000000119106 42190205629653000310550030001851181001191068                I                     
5060000070000000000000000000000000000000000000000S 000000000000000000000000353030000000000000000000000000000000000000000000000000000000004132000000000000289000000000000000000000000000000000000000000000000000000000000000000000000000000000000000000000000000000000000000000000000000000000000000000000000000000000000000     
50700000700000000000000000000000000000000000000000041320000000000035080000000000000000000000000000000000000000000000000000000000000000000000000000000000000002000000000000000000000000000004240000000000041320070000000000000028920000000000000000000000000000000000000000000000000000000000000000000000000000000000000IC0ICM1SC 
508                                                                                                                                                                                                                                                                                                                             
51100000000VOLUMES        11099000007101      LINEN CINZA                                       6102                    00000000                                                                                                                                                                                                
51100000000VOLUMES        11099000008401      LINEN CACAU                                       6102                    00000000                                                                                                                                                                                                
51100000000VOLUMES        11099000009001      LINEN LINHO                                       6102                    00000000                                                                                                                                                                                                
513COM DE PLAST FENIX LTDA                           042901650001049022808475     RUA JOAO NEGRAO, 532                              CENTRO                             CURITIBA                           80010200 4106902  PR       30151512                                                                                   
515ROZAC COMERCIO IMPORTACAO E EXPORTACAO DE PROD.TEX05629653000310255613997      RUA LUIZ LOPES GONZAGA, 1685                      SAO VICENTE                        ITAJAI                             88309421 4208203  SC       33465001                                                                                   
503COM DE PLAST FENIX LTDA                           042901650001049022808475                    RUA JOAO NEGRAO, 532                              CENTRO                             CURITIBA                           80010200 4106902  PR       30151512                           1058    1                                
5053  00018511801022019INDUSTRIALIZACAVOLUMES               1 2C04022019           1 6102SC 0042830700                      00000001                                                                        305022019111000000000000000119106 42190205629653000310550030001851181001191068                I                     
5060000070000000000000000000000000000000000000000S 000000000000000000000000353030000000000000000000000000000000000000000000000000000000004132000000000000289000000000000000000000000000000000000000000000000000000000000000000000000000000000000000000000000000000000000000000000000000000000000000000000000000000000000000     
50700000700000000000000000000000000000000000000000041320000000000035080000000000000000000000000000000000000000000000000000000000000000000000000000000000000002000000000000000000000000000004240000000000041320070000000000000028920000000000000000000000000000000000000000000000000000000000000000000000000000000000000IC0ICM1SC 
508                                                                                                                                                                                                                                                                                                                             
51100000000VOLUMES        11099000007101      LINEN CINZA                                       6102                    00000000                                                                                                                                                                                                
51100000000VOLUMES        11099000008401      LINEN CACAU                                       6102                    00000000                                                                                                                                                                                                
51100000000VOLUMES        11099000009001      LINEN LINHO                                       6102                    00000000                                                                                                                                                                                                
513COM DE PLAST FENIX LTDA                           042901650001049022808475     RUA JOAO NEGRAO, 532                              CENTRO                             CURITIBA                           80010200 4106902  PR       30151512                                                                                   
515ROZAC COMERCIO IMPORTACAO E EXPORTACAO DE PROD.TEX05629653000310255613997      RUA LUIZ LOPES GONZAGA, 1685                      SAO VICENTE                        ITAJAI                             88309421 4208203  SC       33465001                                                                                   
503POLIDO E NASCIMENTO LTDA                          053924090001149027599130                    RUA ALCIDES MEASSI, 370                           SANTOS DUMONT                      CASCAVEL                           85804607 4104808  PR       32282219                           1058    1                                
5053  00018513001022019INDUSTRIALIZACAVOLUMES               1 2C04022019           1 6102SC 0042830700                      00000001                                                                        305022019111000000000000000912732 42190205629653000310550030001851301009127320                I                     
5060000030000000000000000000000000000000000000000S 000000000000000000000000260168000000000000000000000000000000000000000000000000000000003778000000000000264000000000000000000000000000000000000000000000000000000000000000000000000000000000000000000000000000000000000000000000000000000000000000000000000000000000000000     
50700000300000000000000000000000000000000000000000037780000000000032660000000000000000000000000000000000000000000000000000000000000000000000000000000000000002000000000000000000000000000003120000000000037780070000000000000026420000000000000000000000000000000000000000000000000000000000000000000000000000000000000IC0ICM1SC 
508                                                                                                                                                                                                                                                                                                                             
51100000000VOLUMES        11054000022301      VELUDO PEACH TRUFFA                               6102                    00000000                                                                                                                                                                                                
51100000000VOLUMES        11087000001501      VELUDO MATELADO DENVER - CHOCOLATE.               6102                    00000000                                                                                                                                                                                                
513POLIDO E NASCIMENTO LTDA                          053924090001149027599130     RUA ALCIDES MEASSI, 370                           SANTOS DUMONT                      CASCAVEL                           85804607 4104808  PR       32282219                                                                                   
515ROZAC COMERCIO IMPORTACAO E EXPORTACAO DE PROD.TEX05629653000310255613997      RUA LUIZ LOPES GONZAGA, 1685                      SAO VICENTE                        ITAJAI                             88309421 4208203  SC       33465001                                                                                   
503POLIDO E NASCIMENTO LTDA                          053924090001149027599130                    RUA ALCIDES MEASSI, 370                           SANTOS DUMONT                      CASCAVEL                           85804607 4104808  PR       32282219                           1058    1                                
5053  00018513001022019INDUSTRIALIZACAVOLUMES               1 2C04022019           1 6102SC 0042830700                      00000001                                                                        305022019111000000000000000912732 42190205629653000310550030001851301009127320                I                     
5060000030000000000000000000000000000000000000000S 000000000000000000000000260168000000000000000000000000000000000000000000000000000000003778000000000000264000000000000000000000000000000000000000000000000000000000000000000000000000000000000000000000000000000000000000000000000000000000000000000000000000000000000000     
50700000300000000000000000000000000000000000000000037780000000000032660000000000000000000000000000000000000000000000000000000000000000000000000000000000000002000000000000000000000000000003120000000000037780070000000000000026420000000000000000000000000000000000000000000000000000000000000000000000000000000000000IC0ICM1SC 
508                                                                                                                                                                                                                                                                                                                             
51100000000VOLUMES        11054000022301      VELUDO PEACH TRUFFA                               6102                    00000000                                                                                                                                                                                                
51100000000VOLUMES        11087000001501      VELUDO MATELADO DENVER - CHOCOLATE.               6102                    00000000                                                                                                                                                                                                
513POLIDO E NASCIMENTO LTDA                          053924090001149027599130     RUA ALCIDES MEASSI, 370                           SANTOS DUMONT                      CASCAVEL                           85804607 4104808  PR       32282219                                                                                   
515ROZAC COMERCIO IMPORTACAO E EXPORTACAO DE PROD.TEX05629653000310255613997      RUA LUIZ LOPES GONZAGA, 1685                      SAO VICENTE                        ITAJAI                             88309421 4208203  SC       33465001                                                                                   
503E I SILVA MOVEIS                                  090537460001384440003892                    RUA DAS INDUSTRIAS, 225                           CENTRO                             FAZENDA VILANOVA                   95875000 4308078  RS       36131314                           1058    1                                
5053  00018511301022019INDUSTRIALIZACAVOLUMES               1 2C04022019           1 6102SC 0042830700                      00000001                                                                        305022019111000000000000000464374 42190205629653000310550030001851131004643745                I                     
5060000050000000000000000000000000000000000000000S 000000000000000000000000178764000000000000000000000000000000000000000000000000000000002957000000000000207000000000000000000000000000000000000000000000000000000000000000000000000000000000000000000000000000000000000000000000000000000000000000000000000000000000000000     
50700000500000000000000000000000000000000000000000029570000000000025270000000000000000000000000000000000000000000000000000000000000000000000000000000000000002000000000000000000000000000002300000000000029570070000000000000020720000000000000000000000000000000000000000000000000000000000000000000000000000000000000IC0ICM1SC 
508                                                                                                                                                                                                                                                                                                                             
51100000000VOLUMES        11070000007501      VELVETEEN GRAFITE                                 6102                    00000000                                                                                                                                                                                                
51100000000VOLUMES        11084000007701      VELUDO NATURALE RATO                              6102                    00000000                                                                                                                                                                                                
51100000000VOLUMES        11084000008401      VELUDO NATURALE CACAU                             6102                    00000000                                                                                                                                                                                                
513E I SILVA MOVEIS                                  090537460001384440003892     RUA DAS INDUSTRIAS, 225                           CENTRO                             FAZENDA VILANOVA                   95875000 4308078  RS       36131314                                                                                   
515ROZAC COMERCIO IMPORTACAO E EXPORTACAO DE PROD.TEX05629653000310255613997      RUA LUIZ LOPES GONZAGA, 1685                      SAO VICENTE                        ITAJAI                             88309421 4208203  SC       33465001                                                                                   
503E I SILVA MOVEIS                                  090537460001384440003892                    RUA DAS INDUSTRIAS, 225                           CENTRO                             FAZENDA VILANOVA                   95875000 4308078  RS       36131314                           1058    1                                
5053  00018511301022019INDUSTRIALIZACAVOLUMES               1 2C04022019           1 6102SC 0042830700                      00000001                                                                        305022019111000000000000000464374 42190205629653000310550030001851131004643745                I                     
5060000050000000000000000000000000000000000000000S 000000000000000000000000178764000000000000000000000000000000000000000000000000000000002957000000000000207000000000000000000000000000000000000000000000000000000000000000000000000000000000000000000000000000000000000000000000000000000000000000000000000000000000000000     
50700000500000000000000000000000000000000000000000029570000000000025270000000000000000000000000000000000000000000000000000000000000000000000000000000000000002000000000000000000000000000002300000000000029570070000000000000020720000000000000000000000000000000000000000000000000000000000000000000000000000000000000IC0ICM1SC 
508                                                                                                                                                                                                                                                                                                                             
51100000000VOLUMES        11070000007501      VELVETEEN GRAFITE                                 6102                    00000000                                                                                                                                                                                                
51100000000VOLUMES        11084000007701      VELUDO NATURALE RATO                              6102                    00000000                                                                                                                                                                                                
51100000000VOLUMES        11084000008401      VELUDO NATURALE CACAU                             6102                    00000000                                                                                                                                                                                                
513E I SILVA MOVEIS                                  090537460001384440003892     RUA DAS INDUSTRIAS, 225                           CENTRO                             FAZENDA VILANOVA                   95875000 4308078  RS       36131314                                                                                   
515ROZAC COMERCIO IMPORTACAO E EXPORTACAO DE PROD.TEX05629653000310255613997      RUA LUIZ LOPES GONZAGA, 1685                      SAO VICENTE                        ITAJAI                             88309421 4208203  SC       33465001                                                                                   
503VITTAFLEX INDUSTRIA E COMERCIO DE MOVEIS E COLCHOE091746680001209042150824                    RUA TANGARA, 1075                                 PARQUE DAS OFICINAS                ARAPONGAS                          86709000 4101507  PR       31520007                           1058    1                                
5053  00018514704022019INDUSTRIALIZACAVOLUMES               1 2C04022019           1 6102SC 0042830700                      00000001                                                                        305022019111000000000000000863560 42190205629653000310550030001851471008635605                I                     
5060000090000000000000000000000000000000000000000S 000000000000000000000000437908000000000000000000000000000000000000000000000000000000003644000000000000255000000000000000000000000000000000000000000000000000000000000000000000000000000000000000000000000000000000000000000000000000000000000000000000000000000000000000     
50700000900000000000000000000000000000000000000000036440000000000029190000000000000000000000000000000000000000000000000000000000000000000000000000000000000002000000000000000000000000000005250000000000036440070000000000000025520000000000000000000000000000000000000000000000000000000000000000000000000000000000000IC0ICM1SC 
508                                                                                                                                                                                                                                                                                                                             
51100000000VOLUMES        01039000001201      MICROFIBRA 2,25 LISA ABERTA KAKI CLARO            6102                    00000000                                                                                                                                                                                                
513VITTAFLEX INDUSTRIA E COMERCIO DE MOVEIS E COLCHOE091746680001209042150824     RUA TANGARA, 1075                                 PARQUE DAS OFICINAS                ARAPONGAS                          86709000 4101507  PR       31520007                                                                                   
515ROZAC COMERCIO IMPORTACAO E EXPORTACAO DE PROD.TEX05629653000310255613997      RUA LUIZ LOPES GONZAGA, 1685                      SAO VICENTE                        ITAJAI                             88309421 4208203  SC       33465001                                                                                   
503VITTAFLEX INDUSTRIA E COMERCIO DE MOVEIS E COLCHOE091746680001209042150824                    RUA TANGARA, 1075                                 PARQUE DAS OFICINAS                ARAPONGAS                          86709000 4101507  PR       31520007                           1058    1                                
5053  00018514704022019INDUSTRIALIZACAVOLUMES               1 2C04022019           1 6102SC 0042830700                      00000001                                                                        305022019111000000000000000863560 42190205629653000310550030001851471008635605                I                     
5060000090000000000000000000000000000000000000000S 000000000000000000000000437908000000000000000000000000000000000000000000000000000000003644000000000000255000000000000000000000000000000000000000000000000000000000000000000000000000000000000000000000000000000000000000000000000000000000000000000000000000000000000000     
50700000900000000000000000000000000000000000000000036440000000000029190000000000000000000000000000000000000000000000000000000000000000000000000000000000000002000000000000000000000000000005250000000000036440070000000000000025520000000000000000000000000000000000000000000000000000000000000000000000000000000000000IC0ICM1SC 
508                                                                                                                                                                                                                                                                                                                             
51100000000VOLUMES        01039000001201      MICROFIBRA 2,25 LISA ABERTA KAKI CLARO            6102                    00000000                                                                                                                                                                                                
513VITTAFLEX INDUSTRIA E COMERCIO DE MOVEIS E COLCHOE091746680001209042150824     RUA TANGARA, 1075                                 PARQUE DAS OFICINAS                ARAPONGAS                          86709000 4101507  PR       31520007                                                                                   
515ROZAC COMERCIO IMPORTACAO E EXPORTACAO DE PROD.TEX05629653000310255613997      RUA LUIZ LOPES GONZAGA, 1685                      SAO VICENTE                        ITAJAI                             88309421 4208203  SC       33465001                                                                                   
503C MARTINES FABRICACAO DE MOVEIS LTDA              180196690001909062836897                    RUA SANTO ANDRE, 3070                             JARDIM S CRISTOVAO                 UMUARAMA                           87507230 4128104  PR       36243162                           1058    1                                
5053  00018509001022019INDUSTRIALIZACAVOLUMES               1 2C04022019           1 6102SC 0042830700                      00000001                                                                        305022019111000000000000000913832 42190205629653000310550030001850901009138325                I                     
5060000110000000000000000000000000000000000000000S 000000000000000000000000436906000000000000000000000000000000000000000000000000000000003847000000000000269000000000000000000000000000000000000000000000000000000000000000000000000000000000000000000000000000000000000000000000000000000000000000000000000000000000000000     
50700001100000000000000000000000000000000000000000038470000000000031230000000000000000000000000000000000000000000000000000000000000000000000000000000000000002000000000000000000000000000005240000000000038470070000000000000026920000000000000000000000000000000000000000000000000000000000000000000000000000000000000IC0ICM1SC 
508                                                                                                                                                                                                                                                                                                                             
51100000000VOLUMES        11077000023901      SUEDE AMASSADO SUPER BROWN                        6102                    00000000                                                                                                                                                                                                
51100000000VOLUMES        11084000008401      VELUDO NATURALE CACAU                             6102                    00000000                                                                                                                                                                                                
51100000000VOLUMES        11084000023901      VELUDO NATURALE SUPER BROWN                       6102                    00000000                                                                                                                                                                                                
513C MARTINES FABRICACAO DE MOVEIS LTDA              180196690001909062836897     RUA SANTO ANDRE, 3070                             JARDIM S CRISTOVAO                 UMUARAMA                           87507230 4128104  PR       36243162                                                                                   
515ROZAC COMERCIO IMPORTACAO E EXPORTACAO DE PROD.TEX05629653000310255613997      RUA LUIZ LOPES GONZAGA, 1685                      SAO VICENTE                        ITAJAI                             88309421 4208203  SC       33465001                                                                                   
503C MARTINES FABRICACAO DE MOVEIS LTDA              180196690001909062836897                    RUA SANTO ANDRE, 3070                             JARDIM S CRISTOVAO                 UMUARAMA                           87507230 4128104  PR       36243162                           1058    1                                
5053  00018509001022019INDUSTRIALIZACAVOLUMES               1 2C04022019           1 6102SC 0042830700                      00000001                                                                        305022019111000000000000000913832 42190205629653000310550030001850901009138325                I                     
5060000110000000000000000000000000000000000000000S 000000000000000000000000436906000000000000000000000000000000000000000000000000000000003847000000000000269000000000000000000000000000000000000000000000000000000000000000000000000000000000000000000000000000000000000000000000000000000000000000000000000000000000000000     
50700001100000000000000000000000000000000000000000038470000000000031230000000000000000000000000000000000000000000000000000000000000000000000000000000000000002000000000000000000000000000005240000000000038470070000000000000026920000000000000000000000000000000000000000000000000000000000000000000000000000000000000IC0ICM1SC 
508                                                                                                                                                                                                                                                                                                                             
51100000000VOLUMES        11077000023901      SUEDE AMASSADO SUPER BROWN                        6102                    00000000                                                                                                                                                                                                
51100000000VOLUMES        11084000008401      VELUDO NATURALE CACAU                             6102                    00000000                                                                                                                                                                                                
51100000000VOLUMES        11084000023901      VELUDO NATURALE SUPER BROWN                       6102                    00000000                                                                                                                                                                                                
513C MARTINES FABRICACAO DE MOVEIS LTDA              180196690001909062836897     RUA SANTO ANDRE, 3070                             JARDIM S CRISTOVAO                 UMUARAMA                           87507230 4128104  PR       36243162                                                                                   
515ROZAC COMERCIO IMPORTACAO E EXPORTACAO DE PROD.TEX05629653000310255613997      RUA LUIZ LOPES GONZAGA, 1685                      SAO VICENTE                        ITAJAI                             88309421 4208203  SC       33465001                                                                                   
503FAVERO TECIDOS EIRELI ME                          231058240001210100178103                    RUA FORTALEZA, 785                                BOTAFOGO                           BENTO GONCALVES                    95700572 4302105  RS       34533867                           1058    1                                
5053  00018511601022019INDUSTRIALIZACAVOLUMES               1 2C04022019           1 6102SC 0042830700                      00000001                                                                        305022019111000000000000000654414 42190205629653000310550030001851161006544142                I                     
5060000040000000000000000000000000000000000000000S 000000000000000000000000188084000000000000000000000000000000000000000000000000000000002957000000000000207000000000000000000000000000000000000000000000000000000000000000000000000000000000000000000000000000000000000000000000000000000000000000000000000000000000000000     
50700000400000000000000000000000000000000000000000029570000000000025270000000000000000000000000000000000000000000000000000000000000000000000000000000000000002000000000000000000000000000002300000000000029570070000000000000020720000000000000000000000000000000000000000000000000000000000000000000000000000000000000IC0ICM1SC 
508                                                                                                                                                                                                                                                                                                                             
51100000000VOLUMES        11070000022501      VELVETEEN PFD                                     6102                    00000000                                                                                                                                                                                                
51100000000VOLUMES        11094000007601      VELUDO FERRARI - CHUMBO                           6102                    00000000                                                                                                                                                                                                
51100000000VOLUMES        11099000007501      LINEN GRAFITE                                     6102                    00000000                                                                                                                                                                                                
513FAVERO TECIDOS EIRELI ME                          231058240001210100178103     RUA FORTALEZA, 785                                BOTAFOGO                           BENTO GONCALVES                    95700572 4302105  RS       34533867                                                                                   
515ROZAC COMERCIO IMPORTACAO E EXPORTACAO DE PROD.TEX05629653000310255613997      RUA LUIZ LOPES GONZAGA, 1685                      SAO VICENTE                        ITAJAI                             88309421 4208203  SC       33465001                                                                                   
503FAVERO TECIDOS EIRELI ME                          231058240001210100178103                    RUA FORTALEZA, 785                                BOTAFOGO                           BENTO GONCALVES                    95700572 4302105  RS       34533867                           1058    1                                
5053  00018511601022019INDUSTRIALIZACAVOLUMES               1 2C04022019           1 6102SC 0042830700                      00000001                                                                        305022019111000000000000000654414 42190205629653000310550030001851161006544142                I                     
5060000040000000000000000000000000000000000000000S 000000000000000000000000188084000000000000000000000000000000000000000000000000000000002957000000000000207000000000000000000000000000000000000000000000000000000000000000000000000000000000000000000000000000000000000000000000000000000000000000000000000000000000000000     
50700000400000000000000000000000000000000000000000029570000000000025270000000000000000000000000000000000000000000000000000000000000000000000000000000000000002000000000000000000000000000002300000000000029570070000000000000020720000000000000000000000000000000000000000000000000000000000000000000000000000000000000IC0ICM1SC 
508                                                                                                                                                                                                                                                                                                                             
51100000000VOLUMES        11070000022501      VELVETEEN PFD                                     6102                    00000000                                                                                                                                                                                                
51100000000VOLUMES        11094000007601      VELUDO FERRARI - CHUMBO                           6102                    00000000                                                                                                                                                                                                
51100000000VOLUMES        11099000007501      LINEN GRAFITE                                     6102                    00000000                                                                                                                                                                                                
513FAVERO TECIDOS EIRELI ME                          231058240001210100178103     RUA FORTALEZA, 785                                BOTAFOGO                           BENTO GONCALVES                    95700572 4302105  RS       34533867                                                                                   
515ROZAC COMERCIO IMPORTACAO E EXPORTACAO DE PROD.TEX05629653000310255613997      RUA LUIZ LOPES GONZAGA, 1685                      SAO VICENTE                        ITAJAI                             88309421 4208203  SC       33465001                                                                                   
503ALINE CASTILHO NAKAMURA COLCHOES ME               237600650001309070967852                    AV BRASIL, 5555                                   ZONA 05                            MARINGA                            87015280 4115200  PR       3031.6109                          1058    1                                
5053  00018512101022019INDUSTRIALIZACAVOLUMES               1 2C04022019           1 6102SC 0042830700                      00000001                                                                        305022019111000000000000000476870 42190205629653000310550030001851211004768701                I                     
5060000100000000000000000000000000000000000000000S 000000000000000000000000423475000000000000000000000000000000000000000000000000000000003831000000000000268000000000000000000000000000000000000000000000000000000000000000000000000000000000000000000000000000000000000000000000000000000000000000000000000000000000000000     
50700001000000000000000000000000000000000000000000038310000000000031230000000000000000000000000000000000000000000000000000000000000000000000000000000000000002000000000000000000000000000005080000000000038310070000000000000026820000000000000000000000000000000000000000000000000000000000000000000000000000000000000IC0ICM1SC 
508                                                                                                                                                                                                                                                                                                                             
51100000000VOLUMES        11055000008001      VELUDO ELEFANT PRETO.                             6102                    00000000                                                                                                                                                                                                
51100000000VOLUMES        11070000017501      VELVETEEN SAFIRA                                  6102                    00000000                                                                                                                                                                                                
51100000000VOLUMES        11084000000601      VELUDO NATURALE CREME                             6102                    00000000                                                                                                                                                                                                
51100000000VOLUMES        11084000020701      VELUDO NATURALE CELESTE                           6102                    00000000                                                                                                                                                                                                
51100000000VOLUMES        11085000023901      VELVET FOX SUPER BROWN                            6102                    00000000                                                                                                                                                                                                
513ALINE CASTILHO NAKAMURA COLCHOES ME               237600650001309070967852     AV BRASIL, 5555                                   ZONA 05                            MARINGA                            87015280 4115200  PR       3031.6109                                                                                  
515ROZAC COMERCIO IMPORTACAO E EXPORTACAO DE PROD.TEX05629653000310255613997      RUA LUIZ LOPES GONZAGA, 1685                      SAO VICENTE                        ITAJAI                             88309421 4208203  SC       33465001                                                                                   
503ALINE CASTILHO NAKAMURA COLCHOES ME               237600650001309070967852                    AV BRASIL, 5555                                   ZONA 05                            MARINGA                            87015280 4115200  PR       3031.6109                          1058    1                                
5053  00018512101022019INDUSTRIALIZACAVOLUMES               1 2C04022019           1 6102SC 0042830700                      00000001                                                                        305022019111000000000000000476870 42190205629653000310550030001851211004768701                I                     
5060000100000000000000000000000000000000000000000S 000000000000000000000000423475000000000000000000000000000000000000000000000000000000003831000000000000268000000000000000000000000000000000000000000000000000000000000000000000000000000000000000000000000000000000000000000000000000000000000000000000000000000000000000     
50700001000000000000000000000000000000000000000000038310000000000031230000000000000000000000000000000000000000000000000000000000000000000000000000000000000002000000000000000000000000000005080000000000038310070000000000000026820000000000000000000000000000000000000000000000000000000000000000000000000000000000000IC0ICM1SC 
508                                                                                                                                                                                                                                                                                                                             
51100000000VOLUMES        11055000008001      VELUDO ELEFANT PRETO.                             6102                    00000000                                                                                                                                                                                                
51100000000VOLUMES        11070000017501      VELVETEEN SAFIRA                                  6102                    00000000                                                                                                                                                                                                
51100000000VOLUMES        11084000000601      VELUDO NATURALE CREME                             6102                    00000000                                                                                                                                                                                                
51100000000VOLUMES        11084000020701      VELUDO NATURALE CELESTE                           6102                    00000000                                                                                                                                                                                                
51100000000VOLUMES        11085000023901      VELVET FOX SUPER BROWN                            6102                    00000000                                                                                                                                                                                                
513ALINE CASTILHO NAKAMURA COLCHOES ME               237600650001309070967852     AV BRASIL, 5555                                   ZONA 05                            MARINGA                            87015280 4115200  PR       3031.6109                                                                                  
515ROZAC COMERCIO IMPORTACAO E EXPORTACAO DE PROD.TEX05629653000310255613997      RUA LUIZ LOPES GONZAGA, 1685                      SAO VICENTE                        ITAJAI                             88309421 4208203  SC       33465001                                                                                   
503EJC ESTOFADOS LTDA ME                             240086720001019074021775                    RUA HERON SOARES DE OLIVEIRA, 2473                CONJUNTO RESIDENCIA                UMUARAMA                           87506260 4128104  PR       36267076                           1058    1                                
5053  00018511201022019INDUSTRIALIZACAVOLUMES               1 2C04022019           1 6102SC 0042830700                      00000001                                                                        305022019111000000000000000331382 42190205629653000310550030001851121003313825                I                     
5060000060000000000000000000000000000000000000000S 000000000000000000000000216362000000000000000000000000000000000000000000000000000000003583000000000000251000000000000000000000000000000000000000000000000000000000000000000000000000000000000000000000000000000000000000000000000000000000000000000000000000000000000000     
50700000600000000000000000000000000000000000000000035830000000000031230000000000000000000000000000000000000000000000000000000000000000000000000000000000000002000000000000000000000000000002600000000000035830070000000000000025120000000000000000000000000000000000000000000000000000000000000000000000000000000000000IC0ICM1SC 
508                                                                                                                                                                                                                                                                                                                             
51100000000VOLUMES        11077000008401      SUEDE AMASSADO CACAU                              6102                    00000000                                                                                                                                                                                                
51100000000VOLUMES        11077000023901      SUEDE AMASSADO SUPER BROWN                        6102                    00000000                                                                                                                                                                                                
513EJC ESTOFADOS LTDA ME                             240086720001019074021775     RUA HERON SOARES DE OLIVEIRA, 2473                CONJUNTO RESIDENCIA                UMUARAMA                           87506260 4128104  PR       36267076                                                                                   
515ROZAC COMERCIO IMPORTACAO E EXPORTACAO DE PROD.TEX05629653000310255613997      RUA LUIZ LOPES GONZAGA, 1685                      SAO VICENTE                        ITAJAI                             88309421 4208203  SC       33465001                                                                                   
503EJC ESTOFADOS LTDA ME                             240086720001019074021775                    RUA HERON SOARES DE OLIVEIRA, 2473                CONJUNTO RESIDENCIA                UMUARAMA                           87506260 4128104  PR       36267076                           1058    1                                
5053  00018511201022019INDUSTRIALIZACAVOLUMES               1 2C04022019           1 6102SC 0042830700                      00000001                                                                        305022019111000000000000000331382 42190205629653000310550030001851121003313825                I                     
5060000060000000000000000000000000000000000000000S 000000000000000000000000216362000000000000000000000000000000000000000000000000000000003583000000000000251000000000000000000000000000000000000000000000000000000000000000000000000000000000000000000000000000000000000000000000000000000000000000000000000000000000000000     
50700000600000000000000000000000000000000000000000035830000000000031230000000000000000000000000000000000000000000000000000000000000000000000000000000000000002000000000000000000000000000002600000000000035830070000000000000025120000000000000000000000000000000000000000000000000000000000000000000000000000000000000IC0ICM1SC 
508                                                                                                                                                                                                                                                                                                                             
51100000000VOLUMES        11077000008401      SUEDE AMASSADO CACAU                              6102                    00000000                                                                                                                                                                                                
51100000000VOLUMES        11077000023901      SUEDE AMASSADO SUPER BROWN                        6102                    00000000                                                                                                                                                                                                
513EJC ESTOFADOS LTDA ME                             240086720001019074021775     RUA HERON SOARES DE OLIVEIRA, 2473                CONJUNTO RESIDENCIA                UMUARAMA                           87506260 4128104  PR       36267076                                                                                   
515ROZAC COMERCIO IMPORTACAO E EXPORTACAO DE PROD.TEX05629653000310255613997      RUA LUIZ LOPES GONZAGA, 1685                      SAO VICENTE                        ITAJAI                             88309421 4208203  SC       33465001                                                                                   
503JOSE HELIO MARRIQUE ESTOFADOS ME                  255354410001199072924018                    EST CANELINHA, 2620                               JARDIM PARAISO                     UMUARAMA                           87507190 4128104  PR                                          1058    1                                
5053  00018511101022019INDUSTRIALIZACAVOLUMES               1 2C04022019           1 6102SC 0042830700                      00000001                                                                        305022019111000000000000000477870 42190205629653000310550030001851111004778700                I                     
5060000090000000000000000000000000000000000000000S 000000000000000000000000309000000000000000000000000000000000000000000000000000000000003694000000000000259000000000000000000000000000000000000000000000000000000000000000000000000000000000000000000000000000000000000000000000000000000000000000000000000000000000000000     
50700000900000000000000000000000000000000000000000036940000000000031230000000000000000000000000000000000000000000000000000000000000000000000000000000000000002000000000000000000000000000003710000000000036940070000000000000025920000000000000000000000000000000000000000000000000000000000000000000000000000000000000IC0ICM1SC 
508                                                                                                                                                                                                                                                                                                                             
51100000000VOLUMES        11077000023901      SUEDE AMASSADO SUPER BROWN                        6102                    00000000                                                                                                                                                                                                
513JOSE HELIO MARRIQUE ESTOFADOS ME                  255354410001199072924018     EST CANELINHA, 2620                               JARDIM PARAISO                     UMUARAMA                           87507190 4128104  PR                                                                                                  
515ROZAC COMERCIO IMPORTACAO E EXPORTACAO DE PROD.TEX05629653000310255613997      RUA LUIZ LOPES GONZAGA, 1685                      SAO VICENTE                        ITAJAI                             88309421 4208203  SC       33465001                                                                                   
503JOSE HELIO MARRIQUE ESTOFADOS ME                  255354410001199072924018                    EST CANELINHA, 2620                               JARDIM PARAISO                     UMUARAMA                           87507190 4128104  PR                                          1058    1                                
5053  00018511101022019INDUSTRIALIZACAVOLUMES               1 2C04022019           1 6102SC 0042830700                      00000001                                                                        305022019111000000000000000477870 42190205629653000310550030001851111004778700                I                     
5060000090000000000000000000000000000000000000000S 000000000000000000000000309000000000000000000000000000000000000000000000000000000000003694000000000000259000000000000000000000000000000000000000000000000000000000000000000000000000000000000000000000000000000000000000000000000000000000000000000000000000000000000000     
50700000900000000000000000000000000000000000000000036940000000000031230000000000000000000000000000000000000000000000000000000000000000000000000000000000000002000000000000000000000000000003710000000000036940070000000000000025920000000000000000000000000000000000000000000000000000000000000000000000000000000000000IC0ICM1SC 
508                                                                                                                                                                                                                                                                                                                             
51100000000VOLUMES        11077000023901      SUEDE AMASSADO SUPER BROWN                        6102                    00000000                                                                                                                                                                                                
513JOSE HELIO MARRIQUE ESTOFADOS ME                  255354410001199072924018     EST CANELINHA, 2620                               JARDIM PARAISO                     UMUARAMA                           87507190 4128104  PR                                                                                                  
515ROZAC COMERCIO IMPORTACAO E EXPORTACAO DE PROD.TEX05629653000310255613997      RUA LUIZ LOPES GONZAGA, 1685                      SAO VICENTE                        ITAJAI                             88309421 4208203  SC       33465001                                                                                   
503DANUSA KAUFMANN FERREIRA 00627948090              27912582000139ISENTA                        R LONGINO TOGNON, 611                             ZATT                               BENTO GONCALVES                    95708174 4302105  RS       99233526                           1058    1                                
5053  00018511001022019INDUSTRIALIZACAVOLUMES               1 2C04022019           1 6102SC 0042830700                      00000001                                                                        305022019111000000000000000912232 42190205629653000310550030001851101009122326                I                     
5060000040000000000000000000000000000000000000000S 000000000000000000000000160221000000000000000000000000000000000000000000000000000000002957000000000000207000000000000000000000000000000000000000000000000000000000000000000000000000000000000000000000000000000000000000000000000000000000000000000000000000000000000000     
50700000400000000000000000000000000000000000000000029570000000000025270000000000000000000000000000000000000000000000000000000000000000000000000000000000000002000000000000000000000000000002300000000000029570070000000000000020720000000000000000000000000000000000000000000000000000000000000000000000000000000000000IC0ICM1SC 
508                                                                                                                                                                                                                                                                                                                             
51100000000VOLUMES        11069000008401      VELUDO GRAFIATTO CACAU                            6102                    00000000                                                                                                                                                                                                
51100000000VOLUMES        11069000017501      VELUDO GRAFIATTO SAFIRA                           6102                    00000000                                                                                                                                                                                                
51100000000VOLUMES        11084000008401      VELUDO NATURALE CACAU                             6102                    00000000                                                                                                                                                                                                
513DANUSA KAUFMANN FERREIRA 00627948090              27912582000139ISENTA         R LONGINO TOGNON, 611                             ZATT                               BENTO GONCALVES                    95708174 4302105  RS       99233526                                                                                   
515ROZAC COMERCIO IMPORTACAO E EXPORTACAO DE PROD.TEX05629653000310255613997      RUA LUIZ LOPES GONZAGA, 1685                      SAO VICENTE                        ITAJAI                             88309421 4208203  SC       33465001                                                                                   
503DANUSA KAUFMANN FERREIRA 00627948090              27912582000139ISENTA                        R LONGINO TOGNON, 611                             ZATT                               BENTO GONCALVES                    95708174 4302105  RS       99233526                           1058    1                                
5053  00018511001022019INDUSTRIALIZACAVOLUMES               1 2C04022019           1 6102SC 0042830700                      00000001                                                                        305022019111000000000000000912232 42190205629653000310550030001851101009122326                I                     
5060000040000000000000000000000000000000000000000S 000000000000000000000000160221000000000000000000000000000000000000000000000000000000002957000000000000207000000000000000000000000000000000000000000000000000000000000000000000000000000000000000000000000000000000000000000000000000000000000000000000000000000000000000     
50700000400000000000000000000000000000000000000000029570000000000025270000000000000000000000000000000000000000000000000000000000000000000000000000000000000002000000000000000000000000000002300000000000029570070000000000000020720000000000000000000000000000000000000000000000000000000000000000000000000000000000000IC0ICM1SC 
508                                                                                                                                                                                                                                                                                                                             
51100000000VOLUMES        11069000008401      VELUDO GRAFIATTO CACAU                            6102                    00000000                                                                                                                                                                                                
51100000000VOLUMES        11069000017501      VELUDO GRAFIATTO SAFIRA                           6102                    00000000                                                                                                                                                                                                
51100000000VOLUMES        11084000008401      VELUDO NATURALE CACAU                             6102                    00000000                                                                                                                                                                                                
513DANUSA KAUFMANN FERREIRA 00627948090              27912582000139ISENTA         R LONGINO TOGNON, 611                             ZATT                               BENTO GONCALVES                    95708174 4302105  RS       99233526                                                                                   
515ROZAC COMERCIO IMPORTACAO E EXPORTACAO DE PROD.TEX05629653000310255613997      RUA LUIZ LOPES GONZAGA, 1685                      SAO VICENTE                        ITAJAI                             88309421 4208203  SC       33465001                                                                                   
503CASA 7 MOVEIS EIRELI                              286123030001844120004014                    RUA BENTO GONCALVES, 1015                         CENTRO                             SAO VALENTIM DO SUL                99240000 4319711  RS       34711162                           1058    1                                
5053  00018511701022019INDUSTRIALIZACAVOLUMES               1 2C04022019           1 6102SC 0042830700                      00000001                                                                        305022019111000000000000000866560 42190205629653000310550030001851171008665602                I                     
5060000060000000000000000000000000000000000000000S 000000000000000000000000217813000000000000000000000000000000000000000000000000000000003139000000000000220000000000000000000000000000000000000000000000000000000000000000000000000000000000000000000000000000000000000000000000000000000000000000000000000000000000000000     
50700000600000000000000000000000000000000000000000031390000000000026780000000000000000000000000000000000000000000000000000000000000000000000000000000000000002000000000000000000000000000002610000000000031390070000000000000022020000000000000000000000000000000000000000000000000000000000000000000000000000000000000IC0ICM1SC 
508                                                                                                                                                                                                                                                                                                                             
51100000000VOLUMES        11050000008701      VELUDO RUSTICO TABACO.                            6102                    00000000                                                                                                                                                                                                
51100000000VOLUMES        11070000008701      VELVETEEN TABACO                                  6102                    00000000                                                                                                                                                                                                
513CASA 7 MOVEIS EIRELI                              286123030001844120004014     RUA BENTO GONCALVES, 1015                         CENTRO                             SAO VALENTIM DO SUL                99240000 4319711  RS       34711162                                                                                   
515ROZAC COMERCIO IMPORTACAO E EXPORTACAO DE PROD.TEX05629653000310255613997      RUA LUIZ LOPES GONZAGA, 1685                      SAO VICENTE                        ITAJAI                             88309421 4208203  SC       33465001                                                                                   
503CASA 7 MOVEIS EIRELI                              286123030001844120004014                    RUA BENTO GONCALVES, 1015                         CENTRO                             SAO VALENTIM DO SUL                99240000 4319711  RS       34711162                           1058    1                                
5053  00018511701022019INDUSTRIALIZACAVOLUMES               1 2C04022019           1 6102SC 0042830700                      00000001                                                                        305022019111000000000000000866560 42190205629653000310550030001851171008665602                I                     
5060000060000000000000000000000000000000000000000S 000000000000000000000000217813000000000000000000000000000000000000000000000000000000003139000000000000220000000000000000000000000000000000000000000000000000000000000000000000000000000000000000000000000000000000000000000000000000000000000000000000000000000000000000     
50700000600000000000000000000000000000000000000000031390000000000026780000000000000000000000000000000000000000000000000000000000000000000000000000000000000002000000000000000000000000000002610000000000031390070000000000000022020000000000000000000000000000000000000000000000000000000000000000000000000000000000000IC0ICM1SC 
508                                                                                                                                                                                                                                                                                                                             
51100000000VOLUMES        11050000008701      VELUDO RUSTICO TABACO.                            6102                    00000000                                                                                                                                                                                                
51100000000VOLUMES        11070000008701      VELVETEEN TABACO                                  6102                    00000000                                                                                                                                                                                                
513CASA 7 MOVEIS EIRELI                              286123030001844120004014     RUA BENTO GONCALVES, 1015                         CENTRO                             SAO VALENTIM DO SUL                99240000 4319711  RS       34711162                                                                                   
515ROZAC COMERCIO IMPORTACAO E EXPORTACAO DE PROD.TEX05629653000310255613997      RUA LUIZ LOPES GONZAGA, 1685                      SAO VICENTE                        ITAJAI                             88309421 4208203  SC       33465001                                                                                   
503BORBA FREDA COMERCIO DE TECIDOS EIRELI            321741710001230570342902                    RUA VANIUS ABILIO DOS SANTOS, 990                 VILA SANTA CRUZ                    GRAVATAI                           94170302 4309209  RS       34882662                           1058    1                                
5053  00018512601022019INDUSTRIALIZACAVOLUMES               1 2C04022019           1 6102SC 0042830700                      00000001                                                                        305022019111000000000000000654714 42190205629653000310550030001851261006547148                I                     
5060000210000000000000000000000000000000000000000S 000000000000000000000000834372000000000000000000000000000000000000000000000000000000004193000000000000294000000000000000000000000000000000000000000000000000000000000000000000000000000000000000000000000000000000000000000000000000000000000000000000000000000000000000     
50700002100000000000000000000000000000000000000000041930000000000029920000000000000000000000000000000000000000000000000000000000000000000000000000000000000002000000000000000000000000000010010000000000041930070000000000000029420000000000000000000000000000000000000000000000000000000000000000000000000000000000000IC0ICM1SC 
508                                                                                                                                                                                                                                                                                                                             
51100000000VOLUMES        01039000000101      MICROFIBRA 2,25 LISA ABERTA BRANCO                6102                    00000000                                                                                                                                                                                                
51100000000VOLUMES        01039000001001      MICROFIBRA 2,25 LISA ABERTA BEGE                  6102                    00000000                                                                                                                                                                                                
51100000000VOLUMES        01039000001201      MICROFIBRA 2,25 LISA ABERTA KAKI CLARO            6102                    00000000                                                                                                                                                                                                
51100000000VOLUMES        01039000002501      MICROFIBRA 2,25 LISA ABERTA LILAS                 6102                    00000000                                                                                                                                                                                                
51100000000VOLUMES        01039000002901      MICROFIBRA 2,25 LISA ABERTA ROXO                  6102                    00000000                                                                                                                                                                                                
51100000000VOLUMES        01039000003101      MICROFIBRA 2,25 LISA ABERTA ROSA CLARO            6102                    00000000                                                                                                                                                                                                
51100000000VOLUMES        01039000003401      MICROFIBRA 2,25 LISA ABERTA PINK                  6102                    00000000                                                                                                                                                                                                
51100000000VOLUMES        01039000003801      MICROFIBRA 2,25 LISA ABERTA VERMELHO              6102                    00000000                                                                                                                                                                                                
51100000000VOLUMES        01039000004901      MICROFIBRA 2,25 LISA ABERTA AZUL CLARO            6102                    00000000                                                                                                                                                                                                
51100000000VOLUMES        01039000005101      MICROFIBRA 2,25 LISA ABERTA ROYAL                 6102                    00000000                                                                                                                                                                                                
51100000000VOLUMES        01039000008001      MICROFIBRA 2,25 LISA ABERTA PRETO                 6102                    00000000                                                                                                                                                                                                
51100000000VOLUMES        01039000008701      MICROFIBRA 2,25 LISA ABERTA TABACO                6102                    00000000                                                                                                                                                                                                
51100000000VOLUMES        01039000029201      MICROFIBRA 2,25 LISA ABERTA HORTELA               6102                    00000000                                                                                                                                                                                                
513BORBA FREDA COMERCIO DE TECIDOS EIRELI            321741710001230570342902     RUA VANIUS ABILIO DOS SANTOS, 990                 VILA SANTA CRUZ                    GRAVATAI                           94170302 4309209  RS       34882662                                                                                   
515ROZAC COMERCIO IMPORTACAO E EXPORTACAO DE PROD.TEX05629653000310255613997      RUA LUIZ LOPES GONZAGA, 1685                      SAO VICENTE                        ITAJAI                             88309421 4208203  SC       33465001                                                                                   
503BORBA FREDA COMERCIO DE TECIDOS EIRELI            321741710001230570342902                    RUA VANIUS ABILIO DOS SANTOS, 990                 VILA SANTA CRUZ                    GRAVATAI                           94170302 4309209  RS       34882662                           1058    1                                
5053  00018512601022019INDUSTRIALIZACAVOLUMES               1 2C04022019           1 6102SC 0042830700                      00000001                                                                        305022019111000000000000000654714 42190205629653000310550030001851261006547148                I                     
5060000210000000000000000000000000000000000000000S 000000000000000000000000834372000000000000000000000000000000000000000000000000000000004193000000000000294000000000000000000000000000000000000000000000000000000000000000000000000000000000000000000000000000000000000000000000000000000000000000000000000000000000000000     
50700002100000000000000000000000000000000000000000041930000000000029920000000000000000000000000000000000000000000000000000000000000000000000000000000000000002000000000000000000000000000010010000000000041930070000000000000029420000000000000000000000000000000000000000000000000000000000000000000000000000000000000IC0ICM1SC 
508                                                                                                                                                                                                                                                                                                                             
51100000000VOLUMES        01039000000101      MICROFIBRA 2,25 LISA ABERTA BRANCO                6102                    00000000                                                                                                                                                                                                
51100000000VOLUMES        01039000001001      MICROFIBRA 2,25 LISA ABERTA BEGE                  6102                    00000000                                                                                                                                                                                                
51100000000VOLUMES        01039000001201      MICROFIBRA 2,25 LISA ABERTA KAKI CLARO            6102                    00000000                                                                                                                                                                                                
51100000000VOLUMES        01039000002501      MICROFIBRA 2,25 LISA ABERTA LILAS                 6102                    00000000                                                                                                                                                                                                
51100000000VOLUMES        01039000002901      MICROFIBRA 2,25 LISA ABERTA ROXO                  6102                    00000000                                                                                                                                                                                                
51100000000VOLUMES        01039000003101      MICROFIBRA 2,25 LISA ABERTA ROSA CLARO            6102                    00000000                                                                                                                                                                                                
51100000000VOLUMES        01039000003401      MICROFIBRA 2,25 LISA ABERTA PINK                  6102                    00000000                                                                                                                                                                                                
51100000000VOLUMES        01039000003801      MICROFIBRA 2,25 LISA ABERTA VERMELHO              6102                    00000000                                                                                                                                                                                                
51100000000VOLUMES        01039000004901      MICROFIBRA 2,25 LISA ABERTA AZUL CLARO            6102                    00000000                                                                                                                                                                                                
51100000000VOLUMES        01039000005101      MICROFIBRA 2,25 LISA ABERTA ROYAL                 6102                    00000000                                                                                                                                                                                                
51100000000VOLUMES        01039000008001      MICROFIBRA 2,25 LISA ABERTA PRETO                 6102                    00000000                                                                                                                                                                                                
51100000000VOLUMES        01039000008701      MICROFIBRA 2,25 LISA ABERTA TABACO                6102                    00000000                                                                                                                                                                                                
51100000000VOLUMES        01039000029201      MICROFIBRA 2,25 LISA ABERTA HORTELA               6102                    00000000                                                                                                                                                                                                
513BORBA FREDA COMERCIO DE TECIDOS EIRELI            321741710001230570342902     RUA VANIUS ABILIO DOS SANTOS, 990                 VILA SANTA CRUZ                    GRAVATAI                           94170302 4309209  RS       34882662                                                                                   
515ROZAC COMERCIO IMPORTACAO E EXPORTACAO DE PROD.TEX05629653000310255613997      RUA LUIZ LOPES GONZAGA, 1685                      SAO VICENTE                        ITAJAI                             88309421 4208203  SC       33465001                                                                                   
